:1000000012C02CC02BC02AC029C028C027C034C0B1
:1000100045C024C023C022C021C020C01FC01EC0B4
:100020001DC01CC01BC011241FBECFE5D2E0DEBF27
:10003000CDBF10E0A0E6B0E0ECE0FCE002C005902F
:100040000D92A836B107D9F721E0A8E6B0E001C0CB
:100050001D92A139B207E1F7CDD4D6C5D1CF8634F0
:1000600010F490E008958A3F20F090E0845B9109BD
:1000700008958FEF9FEF08951F920F920FB60F9282
:1000800011248F9310927000CA99FECF80EF8EB921
:100090008F910F900FBE0F901F9018951F920F9287
:1000A0000FB60F9211242F933F934F935F936F934B
:1000B0007F938F939F93AF93BF93EF93FF93809121
:1000C0007500811185C080917000813009F463C092
:1000D000A0F1823009F46FC0833009F071C08091C3
:1000E000710020916F0090E06CE470E0BCD4820F4E
:1000F000911DFC01EA58FF4F808110822FB1809141
:10010000710030916F0090E06CE470E0ACD4830F2C
:10011000911DFC01EA58FF4F8081282B2083E0913C
:100120007100F0E0EE58FF4F80818F5F80838091F7
:100130006F008F5F80936F0041C08FB186959FEFF6
:100140009093710090916000981751F09091610028
:10015000981741F090916200981307C092E003C095
:1001600090E001C091E0909371008823C1F08091EC
:1001700071008F3FA1F0789B02C082E019C01092FD
:100180006F0081E080937000E0917100F0E0EE5824
:10019000FF4F808313C08FB162DF019621F484E0AA
:1001A000809370000DC08FB15ADF80936F0083E0A1
:1001B0008093700003C01FB880E005C01FB802C064
:1001C00080E88FB981E091E0909375009EED26C0A4
:1001D000809170008230F1F48FB1882331F0109259
:1001E0006F0084E08093700015C0809171002091B1
:1001F0006F0091E0920F90936F0090E06CE470E0DC
:1002000032D4820F911DFC01EA58FF4F80818FB9D3
:1002100081E001C080E01092750090ED20916F00A8
:100220002C3410F010926F00813011F4D09A01C07C
:10023000D0989EB9FF91EF91BF91AF919F918F910F
:100240007F916F915F914F913F912F910F900FBED2
:100250000F901F9018951092700088EF8DB9D29A68
:10026000D0988BB385608BBB80EF8EB90895809159
:100270007000843029F09091700081E0911101C0EC
:1002800080E00895909170009330A1F4E82F880FDA
:10029000FF0BEE58FF4F8081882361F0F894759B27
:1002A00006C084E0809370008081108201C080E0ED
:1002B0007894089580E00895603108F041C0262FB9
:1002C00030E0220F331F220F331F90E06CE470E008
:1002D000CAD3BC01F901E80FF91FE358FF4F408171
:1002E000F901E80FF91FE458FF4F5081F901E80FB9
:1002F000F91FE158FF4F9081260F371FF901E2588F
:10030000FF4F2081892F90E0982F8827820F911D21
:10031000242F30E0322F2227250F311D821B930B13
:1003200097FF02C0905F06C0811520E1920714F08C
:100330008FEF9FE024E0959587952A95E1F7089542
:1003400080E00895982F88E06BBB000097FF4BBBBF
:10035000990F000000C000C04BBB8A95A9F7089513
:100360008F929F92BF92CF92DF92EF92FF920F9364
:100370001F93CF93DF936C01D19A9BB39D7FF92E8E
:100380009BB39260E92EBFB6F894EB01460183E07F
:10039000880E911C209761F086014F2D6E2DF8017B
:1003A00081918F01CFDF08151905B9F72197F2CF99
:1003B000BFBEF5E8FA95F1F70000DF91CF911F91EC
:1003C0000F91FF90EF90DF90CF90BF909F908F9014
:1003D00008958F929F92BF92CF92DF92EF92FF92F9
:1003E0000F931F93CF93DF936C01D19A9BB39D7FA3
:1003F000F92E9BB39260E92EBFB6F894EB0146014B
:1004000084E0880E911C209761F086014F2D6E2D9F
:10041000F80181918F0196DF08151905B9F7219729
:10042000F2CFBFBEF5EDFA95F1F70000DF91CF9165
:100430001F910F91FF90EF90DF90CF90BF909F9012
:100440008F900895DF92EF92FF920F931F93CF93B7
:10045000DF932AB3242B2ABB2BB3F42EF094F22281
:100460002BB3E42EE22ADFB6F894EC018C01060FE0
:10047000171FC017D10729F04F2D6E2D899162DF0C
:10048000F8CFDFBEDF91CF911F910F91FF90EF90DA
:10049000DF9008959B01220F331F620F731FD2DF7D
:1004A00085E88A95F1F70000089542E0F3CF660FE2
:1004B000771F660F771F42E0C5DF85ED8A95F1F75C
:1004C0000000089542E0BECFD598D698D79887B15E
:1004D0008F7187B93A9A83B1807283B981B1806E86
:1004E00081B986E886B910925B0110925A0108958D
:1004F0009CEF980F933060F487B980EC86B90000C8
:1005000000003699FECF84B125B190E0922B08957A
:1005100080915A0190915B01816090935B0180937F
:100520005A0180E090E00895E3DFBC0180E090E0B4
:1005300026E93CE040E050E0E7D2B901CA0128ECEE
:1005400030E040E050E0A0D2DA01C901B695A795AD
:10055000979587950895CF92DF92EF92FF921F9320
:10056000CF93DF9383E6C82E80E0D82E10E0F6010B
:1005700081916F0190E063E070E075D2EC01612F32
:1005800080E09ADE8095FE01E45AFE4F80837E0172
:10059000FFEFEF1AFF0A61E0610F80E08DDE8095CA
:1005A000F701E45AFE4F8083229662E0610F80E0FB
:1005B00083DE8095C45ADE4F88831D5F1F30B9F6F5
:1005C0006FE070E08CE591E0DF91CF911F91FF909B
:1005D000EF90DF90CF9076CFBB9AD49AD39ABC9A03
:1005E000BE9ABD9A86B58E7F86BD86B58D7F86BD47
:1005F00080B7816080BF80B7806280BF80B78F7E08
:1006000080BF87B5816087BD87B5886087BD87B5A6
:100610008B7F87BD8FB581608FBD8FB58D7F8FBD7F
:100620008FB584608FBD8FB5877F8FBD8FEF8BBDFA
:1006300008956AE081E040DE87FF02C0DB9A01C0D6
:10064000DB9869E081E038DE87FF02C0DC9A01C0F8
:10065000DC986BE081E030DE87FF02C0C49A01C005
:10066000C4986CE081E028DE87FF02C0C69A01C012
:10067000C69868E081E020DE8CBD6DE081E01CDE84
:100680008ABD089510927A0180E197E290937401F7
:100690008093730190937C0180937B0180ED97E0C0
:1006A00090937E0180937D011092720110927101EE
:1006B00085E39CE09093900180938F0110927901E3
:1006C000109278011092770110927F0188E998E0EA
:1006D00090938801809387018CE89AE090938E0133
:1006E00080938D0184EC99E090937601809375015D
:1006F00084E680936C018093860182E38093850178
:1007000080EB94E0909384018093830110926B01BD
:1007100085E080938201089508950F931F93FC0153
:1007200090819F5F9083FB01008111812281338141
:10073000FA0180819181A281B381800F911FA21F54
:10074000B31FFB0180839183A283B383FA011082DC
:100750001182128213821F910F910895CF92DF921E
:10076000EF92FF92CF93DF93EC01688179818A81C8
:100770009B812CE3C22ED12CE12CF12CA7019601F8
:10078000A5D1CA01B901A7019601A0D11882198289
:100790001A821B8280917B0190917C01280F391F66
:1007A00030937C0120937B018091730190917401BF
:1007B00028173907A8F090937C0180937B01209142
:1007C00080013091810180918301909184012817EB
:1007D000390730F010927A01109281011092800155
:1007E00020917B0130917C0180917D0190917E016F
:1007F0008217930718F081E080937A01DF91CF91FF
:10080000FF90EF90DF90CF900895E0916C01F0E0C1
:1008100021E0E817F90708F020E08091860190E0D8
:100820008617970708F422608091850190E084176D
:10083000950708F42460263040F4243068F4213011
:1008400041F0233059F482E00AC0273039F483E0C4
:1008500006C020938201089584E001C085E0809362
:100860008201089520918701309188012817390766
:1008700028F480916B01816080936B0180918D01E0
:1008800090918E018617970728F480916B01826002
:1008900080936B0180917501909176018417950783
:1008A00028F480916B01846080936B010895EF922E
:1008B000FF920F931F93CF93DF9384E035DE7C018B
:1008C00085E032DE8C0186E02FDEEC01AC01B80160
:1008D000C701C8DFAE01B801C70197DF80916D0184
:1008E00090916E01A0916F01B09170018E199F09D6
:1008F000A109B109801B910BA109B1098C0F9D1FA2
:10090000A11DB11D80936D0190936E01A0936F01A5
:10091000B0937001DF91CF911F910F91FF90EF90F5
:10092000089520917B0130917C0180917301909119
:1009300074012817390768F080918201843049F4E6
:100940008091800190918101019690938101809323
:10095000800108952091710130917201AC01421B18
:10096000530B57FF03C051954195510920917801D0
:1009700030917901240F351F30937901209378014C
:10098000909372018093710180918F0190919001F9
:100990002817390750F01092790110927801809150
:1009A00077018F5F8093770182DF809177018A30B2
:1009B00050F0109277014DE651E069E871E08FE761
:1009C00091E0ABDEAEDF80917F018C3328F0109296
:1009D0007F0189E891E0C2CE089580E885BB84E07C
:1009E00083BF08959FB7F89482B724B39FBF90E068
:1009F000922B089581E081BB2EDCEEDDEEDF64DD1D
:100A000041DE7894C1E080E03DDC8111C0936E004E
:100A100081E038DC81110DDEE5DF90936D0080937D
:100A20006C0020916A0030916B00821B930B9093B5
:100A30006900809368008032910578F020916E0003
:100A4000213019F08A309D4340F010926E0083DD12
:100A5000C9DF90936B0080936A0080916C00909145
:100A60006D0078DFD0CF0024552704C0080E591F31
:100A7000880F991F009729F076956795B8F371054F
:100A8000B9F7802D952F0895A1E21A2EAA1BBB1B42
:100A9000FD010DC0AA1FBB1FEE1FFF1FA217B3074A
:100AA000E407F50720F0A21BB30BE40BF50B661F60
:100AB000771F881F991F1A9469F760957095809524
:100AC00090959B01AC01BD01CF010895052E97FBC8
:100AD00016F400940FD057FD05D0D6DF07FC02D0E6
:100AE00046F408C050954095309521953F4F4F4FA3
:100AF0005F4F089590958095709561957F4F8F4FCA
:100B00009F4F089568940013E894A0E0B0E0EAE8ED
:100B1000F5E01DC0EFEFE7F959016A015E23550FBB
:100B2000EE08FE2C87019B01AC019E23990F660BFA
:100B3000762FCB013BD0CDB7DEB7EAE024C02F92B1
:100B40003F924F925F926F927F928F929F92AF925D
:100B5000BF92CF92DF92EF92FF920F931F93CF93AA
:100B6000DF93CDB7DEB7CA1BDB0B0FB6F894DEBF41
:100B70000FBECDBF09942A88398848885F846E8467
:100B80007D848C849B84AA84B984C884DF80EE80B1
:100B9000FD800C811B81AA81B981CE0FD11D0FB6BA
:100BA000F894DEBF0FBECDBFED010895DF93CF9364
:100BB0009F92A0E49A2E0024D001E001F001169546
:100BC0000795F794E794D794C794B794A79448F4FB
:100BD0001068A20FB31FC41FD51FE61FF71F081E02
:100BE000191E220F331F441F551F661F771F881FB2
:100BF000991F9A9421F79D01AE01BF01C0011124F4
:0C0C00009F90CF91DF910895F894FFCFF2
:080C0C00406000000401030236
:00000001FF
