:1000000012C02CC02BC02AC029C028C027C07EC067
:100010008FC024C023C022C021C020C01FC01EC06A
:100020001DC01CC01BC011241FBECFE5D2E0DEBF27
:10003000CDBF10E0A0E6B0E0EAE5F6E002C0059032
:100040000D92A836B107D9F721E0A8E6B0E001C0CB
:100050001D92AA31B207E1F735D2FDC2D1CF262FCA
:1000600030E0F901EE0FFF1FEE0FFF1F90E06CE490
:1000700070E0E0D29C01DF01A80FB91FA658BF4F66
:100080004C91DF01A80FB91FA758BF4F5C91DF014A
:10009000A80FB91FA458BF4F9C912E0F3F1FF90105
:1000A000E558FF4F2081892F90E0982F8827820FF5
:1000B000911D242F30E0322F2227250F311D821B66
:1000C000930B97FF02C0905F06C0811520E1920755
:1000D00014F08FEF9FE024E0959587952A95E1F73E
:1000E00008959FB7F89482B724B39FBF90E0922BF6
:1000F0000895863410F490E008958A3F20F090E04F
:10010000845B910908958FEF9FEF08951F920F92DE
:100110000FB60F9211248F9310926E00CA99FECFE2
:1001200080EF8EB98F910F900FBE0F901F90189592
:100130001F920F920FB60F9211242F933F934F935C
:100140005F936F937F938F939F93AF93BF93EF933F
:10015000FF938091720081117FC080916E00813089
:1001600009F45DC0A0F1823009F469C0833009F060
:100170006BC080916F0020916D0090E06CE470E0A6
:1001800059D2820F911DFC01ED58FF4F80811082E2
:100190002FB180916F0030916D0090E06CE470E0C1
:1001A00049D2830F911DFC01ED58FF4F8081282B10
:1001B0002083E0916F00F0E0E059FF4F80818F5F76
:1001C000808380916D008F5F80936D003BC08FB105
:1001D00086959FEF90936F0090916000981731F093
:1001E00090916100981305C091E001C090E0909358
:1001F0006F008823C1F080916F008F3FA1F0789B42
:1002000002C082E019C010926D0081E080936E0000
:10021000E0916F00F0E0E059FF4F808313C08FB191
:1002200068DF019621F484E080936E000DC08FB1E9
:1002300060DF80936D0083E080936E0003C01FB881
:1002400080E005C01FB802C080E88FB981E091E06E
:10025000909372009EED26C080916E008230F1F482
:100260008FB1882331F010926D0084E080936E008E
:1002700015C080916F0020916D0091E0920F9093D6
:100280006D0090E06CE470E0D5D1820F911DFC010F
:10029000ED58FF4F80818FB981E001C080E010925E
:1002A000720090ED20916D002C3410F010926D00D2
:1002B000813011F4D09A01C0D0989EB9FF91EF918E
:1002C000BF91AF919F918F917F916F915F914F916E
:1002D0003F912F910F900FBE0F901F901895109285
:1002E0006E0088EF8DB9D29AD0988BB385608BBBA6
:1002F00080EF8EB9089580916E00843029F090913E
:100300006E0081E0911101C080E0089590916E002F
:100310009330A1F4E82F880FFF0BE059FF4F808145
:10032000882361F0F894759B06C084E080936E008A
:100330008081108201C080E07894089580E0089563
:10034000982F88E06BBB97FF4BBB990F000000C054
:1003500000C000C04BBB8A95A9F708958F929F9269
:10036000BF92CF92DF92EF92FF920F931F93CF93A2
:10037000DF936C01D19A9BB39D7FF92E9BB3926062
:10038000E92EBFB6F894EB01460183E0880E911C7C
:10039000209761F086014F2D6E2DF80181918F011C
:1003A000CFDF08151905B9F72197F2CFBFBEF5E8E1
:1003B000FA95F1F70000DF91CF911F910F91FF9017
:1003C000EF90DF90CF90BF909F908F9008958F9285
:1003D0009F92BF92CF92DF92EF92FF920F931F9363
:1003E000CF93DF936C01D19A9BB39D7FF92E9BB382
:1003F0009260E92EBFB6F894EB01460184E0880EC6
:10040000911C209761F086014F2D6E2DF80181918E
:100410008F0196DF08151905B9F72197F2CFBFBEF6
:10042000F5EDFA95F1F70000DF91CF911F910F9153
:10043000FF90EF90DF90CF90BF909F908F900895A6
:10044000DF92EF92FF920F931F93CF93DF932AB324
:10045000242B2ABB2BB3F42EF094F2222BB3E42EE0
:10046000E22ADFB6F894EC018C01060F171FC017C3
:10047000D10729F04F2D6E2D899162DFF8CFDFBEB5
:10048000DF91CF911F910F91FF90EF90DF90089532
:100490009B01220F331F620F731FD2DF85E88A95FD
:1004A000F1F70000089542E0F3CF660F771F660F63
:1004B000771F42E0C5DF85ED8A95F1F700000895CA
:1004C00042E0BECF81E081BB0ADFBB9AD49AD39AC7
:1004D000BC9ABE9ABD9A86B58E7F86BD86B58D7F45
:1004E00086BD80B7816080BF80B7806280BF80B7E3
:1004F0008F7E80BF87B5816087BD87B5886087BDE7
:1005000087B58B7F87BD8FB581608FBD8FB58D7FA0
:100510008FBD8FB584608FBD8FB5877F8FBD8FEF07
:100520008BBD80E885BB84E083BF789401E080E0E8
:10053000EDDE811100936C0081E0E8DE882341F15B
:100540006AE081E08CDD87FF02C0DB9A01C0DB98A6
:1005500069E081E084DD87FF02C0DC9A01C0DC989D
:100560006BE081E07CDD87FF02C0C49A01C0C498C3
:100570006CE081E074DD87FF02C0C69A01C0C698B6
:1005800068E081E06CDD8CBD6DE081E068DD8ABDF6
:10059000A8DD20916A0030916B00821B930B909331
:1005A0006900809368008032910508F4C0CF2091E3
:1005B0006C00213021F08A309D4308F4B8CF1092AE
:1005C0006C0082E6C82E80E0D82E10E0F601819102
:1005D0006F0190E063E070E02DD0EC01612F80E0CE
:1005E0003EDD8095FE01E55FFE4F80837E01FFEFDB
:1005F000EF1AFF0A61E0610F80E031DD8095F701BD
:10060000E55FFE4F8083229662E0610F80E027DD88
:100610008095C55FDE4F88831D5F1F30B9F66FE0A0
:1006200070E08BE091E04CDF5CDD90936B00809399
:100630006A007DCF0024552704C0080E591F880F7B
:10064000991F009729F076956795B8F37105B9F76A
:0A065000802D952F0895F894FFCF38
:08065A004060000401030200EE
:00000001FF
